{
  "contractName": "MyContract",
  "abi": [
    {
      "inputs": [],
      "payable": false,
      "stateMutability": "nonpayable",
      "type": "constructor"
    },
    {
      "constant": true,
      "inputs": [],
      "name": "getBalance",
      "outputs": [
        {
          "name": "",
          "type": "uint256"
        }
      ],
      "payable": false,
      "stateMutability": "view",
      "type": "function"
    },
    {
      "constant": true,
      "inputs": [],
      "name": "getSender",
      "outputs": [
        {
          "name": "",
          "type": "address"
        }
      ],
      "payable": false,
      "stateMutability": "view",
      "type": "function"
    },
    {
      "constant": false,
      "inputs": [
        {
          "name": "_studentId",
          "type": "uint256"
        },
        {
          "name": "_name",
          "type": "string"
        },
        {
          "name": "_gender",
          "type": "string"
        },
        {
          "name": "_age",
          "type": "uint256"
        }
      ],
      "name": "setStudentInfo",
      "outputs": [],
      "payable": false,
      "stateMutability": "nonpayable",
      "type": "function"
    },
    {
      "constant": true,
      "inputs": [
        {
          "name": "_studentId",
          "type": "uint256"
        }
      ],
      "name": "getStudentInfo",
      "outputs": [
        {
          "name": "",
          "type": "string"
        },
        {
          "name": "",
          "type": "string"
        },
        {
          "name": "",
          "type": "uint256"
        }
      ],
      "payable": false,
      "stateMutability": "view",
      "type": "function"
    }
  ],
  "bytecode": "0x608060405234801561001057600080fd5b5060646000803373ffffffffffffffffffffffffffffffffffffffff1673ffffffffffffffffffffffffffffffffffffffff1681526020019081526020016000208190555060646000803373ffffffffffffffffffffffffffffffffffffffff1673ffffffffffffffffffffffffffffffffffffffff168152602001908152602001600020600082825401925050819055506105cf806100b16000396000f300608060405260043610610062576000357c0100000000000000000000000000000000000000000000000000000000900463ffffffff16806312065fe0146100675780635e01eb5a1461009257806365a81d7d146100e9578063e1962c3b14610202575b600080fd5b34801561007357600080fd5b5061007c6102c5565b6040518082815260200191505060405180910390f35b34801561009e57600080fd5b506100a7610310565b604051808273ffffffffffffffffffffffffffffffffffffffff1673ffffffffffffffffffffffffffffffffffffffff16815260200191505060405180910390f35b3480156100f557600080fd5b5061011460048036038101908080359060200190929190505050610318565b604051808060200180602001848152602001838103835286818151815260200191508051906020019080838360005b8381101561015e578082015181840152602081019050610143565b50505050905090810190601f16801561018b5780820380516001836020036101000a031916815260200191505b50838103825285818151815260200191508051906020019080838360005b838110156101c45780820151818401526020810190506101a9565b50505050905090810190601f1680156101f15780820380516001836020036101000a031916815260200191505b509550505050505060405180910390f35b34801561020e57600080fd5b506102c360048036038101908080359060200190929190803590602001908201803590602001908080601f0160208091040260200160405190810160405280939291908181526020018383808284378201915050505050509192919290803590602001908201803590602001908080601f0160208091040260200160405190810160405280939291908181526020018383808284378201915050505050509192919290803590602001909291905050506104a5565b005b6000806000803373ffffffffffffffffffffffffffffffffffffffff1673ffffffffffffffffffffffffffffffffffffffff1681526020019081526020016000205490508091505090565b600033905090565b606080600060016000858152602001908152602001600020600001600160008681526020019081526020016000206001016001600087815260200190815260200160002060020154828054600181600116156101000203166002900480601f0160208091040260200160405190810160405280929190818152602001828054600181600116156101000203166002900480156103f55780601f106103ca576101008083540402835291602001916103f5565b820191906000526020600020905b8154815290600101906020018083116103d857829003601f168201915b50505050509250818054600181600116156101000203166002900480601f0160208091040260200160405190810160405280929190818152602001828054600181600116156101000203166002900480156104915780601f1061046657610100808354040283529160200191610491565b820191906000526020600020905b81548152906001019060200180831161047457829003601f168201915b505050505091509250925092509193909250565b6000600160008681526020019081526020016000209050838160000190805190602001906104d49291906104fe565b50828160010190805190602001906104ed9291906104fe565b508181600201819055505050505050565b828054600181600116156101000203166002900490600052602060002090601f016020900481019282601f1061053f57805160ff191683800117855561056d565b8280016001018555821561056d579182015b8281111561056c578251825591602001919060010190610551565b5b50905061057a919061057e565b5090565b6105a091905b8082111561059c576000816000905550600101610584565b5090565b905600a165627a7a72305820afdbd359a507791e3789dca16c7884d77666a35cc09b5359a55f2dec66d0baa10029",
  "source": "pragma solidity ^0.4.25;\r\ncontract MyContract {\r\n    mapping(address => uint256) balance;\r\n    \r\n    struct Student {\r\n        string studentName;\r\n        string gender;\r\n        uint age;\r\n    }\r\n\r\n    mapping(uint256 => Student) studentInfo;\r\n\r\n    constructor() public {\r\n        balance[msg.sender] = 100;\r\n        balance[msg.sender] += 100;\r\n    }\r\n    \r\n    function getBalance() public view returns(uint256) {\r\n        uint256 currentBalance = balance[msg.sender];\r\n        return currentBalance;\r\n    }\r\n    \r\n    function getSender() public view returns(address) {\r\n        return msg.sender;\r\n    }\r\n    \r\n   function setStudentInfo(uint _studentId, string _name, string _gender, uint _age) public {\r\n        Student storage student = studentInfo[_studentId];  //키값으로 특정 Student 구조체를 불러온다.\r\n\r\n        //구조체 각각 필드에 아규먼트로 받은 값들을 대입\r\n        student.studentName = _name;\r\n        student.gender = _gender;\r\n        student.age = _age;\r\n    }\r\n\r\n    function getStudentInfo(uint256 _studentId) view public returns(string,string,uint) {\r\n        return (studentInfo[_studentId].studentName, studentInfo[_studentId].gender, studentInfo[_studentId].age);\r\n    }\r\n}",
  "sourcePath": "C:\\Users\\kosta\\Documents\\Smart_Contract\\simple_solidity\\Smart-Contract\\basic_sm_truffle\\contracts\\MyContract.sol",
  "compiler": {
    "name": "solc",
    "version": "0.4.25+commit.59dbf8f1.Emscripten.clang"
  },
  "schemaVersion": "2.0.2",
  "updatedAt": "2019-06-28T02:33:45.126Z"
}